:020000040800F2
:10000000D0040020C90000082D1E00083D1B000878
:1000100000000000000000000000000000000000E0
:10002000000000000000000000000000771E000833
:100030000000000000000000751E0008791E000886
:10004000DB00000800000000DB000008DB00000807
:10005000DB000008DB000008DB000008DB00000814
:1000600000000000DB000008DB000008DB000008E7
:10007000DB000008DB000008DB00000800000000D7
:10008000DB000008DB00000800000000DB000008C7
:10009000DB000008DB000008DB000008DB000008D4
:1000A000DB000008DB000008DB000008E12200089C
:1000B000DB0000080348854600F06AFA0048004764
:1000C0001B2C0008D0040020044880470448004747
:1000D000FEE7FEE7FEE7FEE7FEE7FEE7E91E0008B3
:1000E000B500000830B50B4601460020202201244F
:1000F00009E00D46D5409D4205D31D469540491B5C
:100100002546954040191546521E002DF1DC30BDA4
:1001100070B500242546002801DA01244042002958
:1001200001DA01254942FFF7DDFFAC4200D0404231
:10013000002C00D0494270BD10B5202A04DB0846CF
:10014000203AD040002110BD0B46D340D04020249F
:10015000A21A91400843194610BD00000549064AFD
:1001600008685043054A80180860400870470149F4
:10017000086070470C0000206D4EC6413930000009
:10018000D2B201E00270401C491EFBD2704700222F
:10019000F6E710B513460A4604461946FFF7F0FF86
:1001A000204610BDF0B51FB40646002082B00546BB
:1001B0004024019100901BE0019922460F463046F1
:1001C000FFF7BAFF049A059B801A994110D3104695
:1001D0001946224600F0EEF9361A8F410197224661
:1001E00001200021009F00F0E5F938184D410090F2
:1001F0002046641E0028DFDC019B00982946324619
:1002000007B0F0BDF0B507460846584087B0C00FAC
:10021000049048000E46590040084908BC1A88411D
:1002200005D2384631461E4617460B460246580050
:10023000400810434CD0300D039040055900400D4C
:10024000490D0590401A0290402872DA18030121E6
:10025000000B09050843019004980092002805D07E
:100260000199524200208841009201900298402159
:100270000A1A0199009800F09DF905460C466B4654
:1002800007CB00F0A7F9C0197141039A0E0D0023A6
:10029000D71756401A467A40164344D0049A002A8B
:1002A0002DD0029A012A039A15DC1205C01A914139
:1002B00001263605001C7141D20F059ED20700931E
:1002C000019202962A46234600F0A4F907B0F0BD39
:1002D00038463146FAE71605224A0F46B218C01AC8
:1002E000B74101210905001C4F4100187F4111460B
:1002F00018187941E20F10436D19644113E0E207C9
:100300006D0815436408C2071443039A01261205B9
:10031000C01A91413605001C7141CE074008304398
:100320004908C01851412A46234600F066F9CDE736
:10033000FFE7049801224000C117121A00238B41E5
:1003400004983146C417381AA141EEE730B40124AD
:10035000E407634030BC55E730B40124E407614052
:1003600030BC4FE70000E0FFF0B51FB488B00B9938
:100370000998002448400999C00F4900490809918B
:10038000C0070B990090490049080B9109990898FA
:10039000A64608431CD00B990A98084318D0099820
:1003A00001244000420D4800410D09982405000336
:1003B000000B204309900B980003000B20430B9087
:1003C00050181C494018002201901446104605E0C0
:1003D000002001460DB0F0BD032801DA034600E01D
:1003E00003239C46C11A0AAE0AE05F0008ADED5B2C
:1003F0004F00F75B7D430027AA187C41491C5B1E18
:100400006145F2DD410004AB5A522104120C0A434B
:10041000240C401C0828DFDB0198029000997046EC
:1004200001910090059B049A0799069800F0F2F854
:10043000D0E700000DFCFFFFF0B50C465C4085B036
:10044000E40FE40703944C00002664085900944626
:10045000490802460296224321D062460A431ED032
:100460006200570D4A000E032303550D0124024676
:100470002C492405781B1B0B360B401823432643BD
:10048000614600901C46501AB44103D30098401CAA
:10049000009002E0921800985B41002803DA0020E7
:1004A000014605B0F0BD002001210905074686463A
:1004B00011E064461D46141BB54106D36546521B28
:1004C000B341744607430C43A646CD07400849088C
:1004D000284392185B4105460D43EAD11046184364
:1004E00013D06046194650407140084306D060461C
:1004F000101AB34106D20122002306E00022012394
:10050000DB0702E00122D243531000987446010534
:10051000381C6141029C039D0019694100F06DF88F
:10052000BFE70000FD0300004A0009030123090B97
:100530001B0519430A4B10B5520D9A4202DA0020EE
:10054000014610BD064B34339A4203DC9A1AFFF77A
:10055000F3FD10BD034BD21800F02CF810BD0000C5
:10056000FF030000CDFBFFFF10B5002904DB0124D1
:10057000E40740428C412146002B04DB1C4601234A
:10058000DB075242A341994200D1904210BD0000C6
:10059000064C0125064E05E0E36807CC2B430C3CD6
:1005A00098471034B442F7D3FFF788FD742C000845
:1005B000942C000810B5202A04DB0146203A914013
:1005C000002010BD914020239C1A0346E3401943AC
:1005D000904010BD10B5202A06DBCB170846203A04
:1005E0001041C1170B4306E00B461341D0402024B5
:1005F000A21A91400843194610BD10B5002B08DA25
:100600000024401C614192185B411A4301D140080B
:10061000400010BDF0B51FB482B005460C0003D0F9
:10062000084601F077FE02E001F074FE2030024639
:10063000009021462846FFF7BDFF049B059A04461B
:100640000F4618431143084314D0184610431BD0DB
:10065000009840210A1A18460599FFF76DFD0546D6
:100660000E46009A05990498FFF7A4FF084305D0A9
:10067000012004E02046394607B0F0BD0020C11734
:1006800005430E432C43374300990E986305401AE7
:100690007905E40A00220C43FD0A0A3002D5002045
:1006A0000146E9E70105101969410C9C0D9D0019EF
:1006B0006941FFF7A2FFDFE700487047080000200C
:1006C00010B50B49094A0A60486000208860C8607C
:1006D00008610C2288614A61C861084601F028F966
:1006E00001220449024801F07FF910BD00380140A1
:1006F0005C0000200800002010B500245A230122CD
:10070000A021084800F072FB002808D0322000F039
:100710005BFA641CE4B2052CF0D3002010BD01206C
:1007200010BD000010000020F0B50646012085B085
:1007300017460D46002416E004AA03A9304602F02D
:1007400057FA01205A210190009502916846007CD9
:10075000012341006846027B054800F0D5FB761C6A
:10076000641CB6B26D1CBC42E6DB05B0F0BD0000F7
:1007700010000020F7B5012786B00D46064600247C
:100780001AE004AA03A9304602F032FA01205A21E5
:100790000190009502916846007C01234100684663
:1007A000027B084800F05CFC0746761CB6B20520C8
:1007B0006D1C00F009FA641C08988442E1DB38469D
:1007C00009B0F0BD10000020F0B58BB0064601273F
:1007D000FFF792FF00285DD130A002F010FA34A09C
:1007E00002F00DFA28216846FFF7D1FC28220021EB
:1007F000684600F093F800256C46615D33A002F076
:10080000FEF96D1CADB2282DF7D332A002F0F7F936
:1008100032A002F0F4F93848FFF7A9FC2821684615
:10082000FFF7B5FC0025FF27002E02D0012E07D0D0
:1008300007E0FFF793FCFF21FFF76AFC615500E03A
:100840006755615D21A002F0DAF96D1CADB2282D6B
:10085000EAD320A002F0D3F928220021684600F054
:1008600015F926A002F0CBF928216846FFF78FFC86
:1008700028220021684600F051F807460025615DF6
:1008800012A002F0BCF96D1CADB2282DF7D311A057
:1008900002F0B5F938460BB0F0BD000045455052A6
:1008A0004F4D2049732052656164790D0A000000A4
:1008B000454550524F4D204461746120526561643A
:1008C0004F7574203A0D0A0D0A0000003078255843
:1008D000200000000D0A0D0A00000000454550529E
:1008E0004F4D2044617461205772697465496E20D0
:1008F0003A0D0A0D0A00000037120000454550521B
:100900004F4D204461746120526561644F757420BD
:10091000416761696E203A0D0A0D0A0010B50B4659
:10092000002A06D0002804D001461846FFF7FCFE36
:1009300010BD012010BD0000F0B58BB006460127A8
:10094000FFF7DAFE00285DD130A002F058F934A09C
:1009500002F055F928216846FFF719FC00256C467E
:10096000611901222846FFF7DFFE615D33A002F026
:1009700046F96D1CADB2282DF2D332A002F03FF93A
:1009800032A002F03CF93848FFF7F1FB2821684615
:10099000FFF7FDFB0025002E02D0012E07D008E056
:1009A000FFF7DCFBFF21FFF7B3FB615501E0FF2000
:1009B0006055611901222846FFF7DCFE615D1FA02A
:1009C00002F01DF96D1CADB2282DE4D31DA002F07C
:1009D00016F926A002F013F928216846FFF7D7FB85
:1009E0000025611901222846FFF79EFE0746615D3A
:1009F00012A002F004F96D1CADB2282DF1D311A0A4
:100A000002F0FDF838460BB0F0BD000045455052ED
:100A10004F4D2049732052656164790D0A00000032
:100A2000454550524F4D20446174612052656164C8
:100A30004F7574203A0D0A0D0A00000030782558D1
:100A4000200000000D0A0D0A00000000454550522C
:100A50004F4D2044617461205772697465496E205E
:100A60003A0D0A0D0A0000003712000045455052A9
:100A70004F4D204461746120526561644F7574204C
:100A8000416761696E203A0D0A0D0A00F7B5C80684
:100A90000E46C00E82B020210C1A0190D006C00E66
:100AA000154657090090FFF727FE002806D0FFF7EC
:100AB00023FE002802D0012005B0F0BD01980028D7
:100AC00018D0F006C00E2021081A30180190002F0F
:100AD00028D0281B80B2C7064509FF0E22463046A3
:100AE0000299FFF747FE0028E6D1019886B20298E6
:100AF000041939E0002F2BD00BE020223046029958
:100B0000FFF738FE0028D7D120360298B6B2203041
:100B1000029038467F1EBFB20028EED1009A02999B
:100B2000304610E00098A04212D9001B85B2224640
:100B300030460299FFF71EFE0028BDD101980299A8
:100B400080B209192A46FFF715FE0028B4D115E036
:100B50002A46E4E7202221463046FFF70BFE002814
:100B6000AAD12036B6B2203428466D1EADB2002878
:100B7000F0D1002F02D03A462146D1E700209BE772
:100B800070B50024014620314A78022A03D004219E
:100B90008163012416E0026813680E25AB431360DD
:100BA000026813685B085B0013600122056C134642
:100BB000AB40C56B6B604A7000220A70416B002924
:100BC00000D08847204670BD31B500F0AFF8009CDA
:100BD0000546601C00D0641C00F0A8F8401BA04231
:100BE000FAD338BDF8B500238DE001249C40A4461B
:100BF00022407DD04C68022C01D0122C0CD1DC0894
:100C0000A40027183C6A5D07ED0E0F26AE40B443E2
:100C10000E69AE4026433E6205685E000324B44080
:100C20000F79A543BF07BF0FB7402F4307604D683B
:100C3000012D05D0022D03D0112D01D0122D0ED182
:100C40008568CF68A543B7402F43876047686546EE
:100C5000AF430D79ED06ED0F9D403D434560C568FE
:100C6000A5438C68B4402C43C4604C68E40049D56B
:100C7000284CA56901263543A561A4699D08344027
:100C80000094254CAD002F19BC689D072E0F0F2531
:100C9000B540AC430925ED06A84201D100250FE07F
:100CA0001E4DA84201D101250AE01D4DA84201D1E7
:100CB000022505E01B4DA84201D1032500E00525D2
:100CC000B5402543BD60184C25684E689543F60332
:100CD00000D51543256065684E689543B60300D579
:100CE00015436560A5684E689543F60202D500E09D
:100CF00008E01543A560E5684E689543B60200D547
:100D00001543E5605B1C0A681446DC4000D06CE7C4
:100D1000F8BD00000010024000000140000400483F
:100D200000080048000C0048000401400148006829
:100D3000704700000400002070B5040006D025466E
:100D4000403568780026002802D005E0012070BDFB
:100D50002E70204600F02EFA24206870206801686A
:100D60004908490001600F2160680906884321682D
:100D7000086121688A680120C00382438A60E168B3
:100D80000129A16808D021229202114322689160B2
:100D9000E168022902D005E00143F7E7012122685A
:100DA000C902516021684A680F4B1A434A602168A2
:100DB000CA688243CA60616920690843A16909025F
:100DC00008432168C860216AE06908432168086017
:100DD0002068016801221143016066642020687068
:100DE0002663AE70002070BD00800002FFB504468F
:100DF000002083B02546403501906A78202A7FD1B3
:100E000022689269D24312047AD52A78012A77D0CF
:100E100001222A7024226A7060648F05BF0DE06889
:100E200001280BD00520C00201213818890288430F
:100E300021684860FFF77AFF064612E03148F3E781
:100E40000698401C0DD00698002805D0FFF76EFFCD
:100E5000811B0698814204D92020687000202870E8
:100E600043E020688169C943890606D58069C0438B
:100E7000C00602D56878A028E2D120688069069B68
:100E8000C043C00600960ED500222021204600F067
:100E90001DFF002829D121682020C861687000202A
:100EA000287007B0F0BD00222021204600F00EFF80
:100EB00000281AD120681021C16120682021C16159
:100EC0000198411C01910599884214D1206841681C
:100ED0000122920311434160009600222021204606
:100EE000069B00F0F3FE002802D00320D9E707E0BC
:100EF00021682020C8610199059881428FD3ABE712
:100F00000220CEE700200002FFB50546044640352A
:100F1000687883B0202873D10C98002871D00D9880
:100F200000286ED0287801286AD001202870FFF7A9
:100F3000FDFE0746012200901923D103204600F050
:100F4000C5FE002876D1222068704020A8700026B7
:100F500066640C9860620D98608566630E980090D8
:100F6000019704A90EC9204600F034FE002804D0E1
:100F7000606C2E70042860D05CE0618D09208002D6
:100F8000FF2905D9FF22228501231B06009006E0D8
:100F9000618D21850090208D0123C2B25B06204621
:100FA000049900F081FE00970022042120460E9B48
:100FB00000F08CFE00283DD12068416A606A421C26
:100FC00062620170208D401E81B22185608D401EBD
:100FD0006085002921D1608D00281ED00097002255
:100FE000802120460E9B00F071FE002822D1608DEA
:100FF000FF2807D9FF22228501231B06009608E05F
:101000002AE01AE0608D20850096208D0123C2B26F
:101010005B062046049900F047FE608D0028C2D18F
:101020003A4620460E9900F075FE002807D0606C05
:10103000042802D0032007B0F0BD0120FBE721689F
:101040002020C86121684A68044B1A404A606870D1
:10105000AE702E700020EEE70220ECE700E800FE04
:10106000FFB5054604464035687883B0202876D120
:101070000C98002874D00D98002871D02878012889
:101080006DD001202870FFF751FE07460122009025
:101090001923D103204600F019FE002853D1212046
:1010A00068704020A870002666640C9860620D98F5
:1010B000608566630E980090019704A90EC92046CA
:1010C00000F0BDFD002804D0606C2E7004286AD0AA
:1010D00039E0608DFF2805D9FF22228501231B06F8
:1010E000009606E0608D20850096208D0123C2B217
:1010F0005B062046049900F0D7FD3A4620460E993B
:1011000000F02FFE002803D0606C04284BD01AE0BA
:10111000606A411C6162216800788862608D401EAF
:101120006085208D401E0004000C208524D1608D38
:10113000002821D000970022802120460E9B00F03D
:10114000C5FD002802D0032007B0F0BD608DFF2848
:1011500007D9FF22228501231B06009608E024E020
:1011600021E0608D20850096208D0123C2B25B06B0
:101170002046049900F098FD608D0028BDD13A46C4
:1011800020460E9900F0C6FD0028BDD12068202120
:10119000C16120684268064B1A4042606970AE70B7
:1011A0002E700020D0E70120CEE70220CCE700001F
:1011B00000E800FE00B500680C4987B0884212D1F3
:1011C000C020009012200190032003906946084837
:1011D000FFF708FD0748C269012149050A43C261BA
:1011E000C0690840059007B000BD000000540040F1
:1011F000000400480010024002480168491C0160D8
:10120000704700000400002010B506480168102255
:1012100011430160002000F007F800F017F80020EB
:1012200010BD00000020024010B5044600F0CEF8CA
:101230007D21C900FEF756FF00F0D2FA00222146B8
:10124000501E00F029F8002010BD000008B50C4821
:101250008169012211438161806910400022009060
:101260001146501F00F018F800221146901E00F0A1
:1012700013F800221146501E00F00EF808BD0000C1
:1012800000100240C106C90E0120884001490860D3
:101290007047000000E100E010B500F0C9FD10BD8E
:1012A000F8B5054644480E460068C007C00FB04276
:1012B0000AD2414801684908490031430160006889
:1012C000C007C00FB0425CD128783C4C800705D5E0
:1012D0006068F0218843A968084360602878C007E7
:1012E0003FD06868012813D02168022813D08907ED
:1012F000002946DA61688908890001436160FFF7C7
:1013000015FD6968074601290DD0022917D024E090
:1013100021688903ECE78901EAE7FFF707FDC11BB4
:101320002748814217D860680007800F0128F4D150
:1013300017E0FFF7FBFCC11B214881420BD8606816
:101340000007800F0228F4D10BE0FFF7EFFCC11B70
:101350001B48814201D90320F8BD60680007800F57
:10136000F3D115480168C907C90FB1420BD901680B
:1013700049084900314301600068C007C00FB0420E
:1013800001D00120F8BD2878400706D56068072104
:1013900009028843E9680843606000F02DF861683D
:1013A000084A0906090F515CC84007490860002037
:1013B000FFF73AFF0020F8BD002002400010024075
:1013C000881300005C2C0008000000200148006821
:1013D0007047000000000020044805490068496883
:1013E000044A4905490F515CC8407047000000207D
:1013F000001002406C2C000810B512A30FCB88B06F
:101400006C460FC413A30FCB0FC416494A680C20B7
:10141000134603401448042B0FD0082B0DD1930220
:101420001B0F6C46E45CC96A04AB0907090F595CE1
:10143000D20304D5FEF756FE604308B010BD0B483A
:101440006043FAE702030405060708090A0B0C0DBE
:101450000E0F10100102030405060708090A0B0C01
:101460000D0E0F100010024000127A0000093D001E
:10147000FEB504460078D04DC00747D06868000725
:10148000800F012807D068680007800F022809D163
:101490006868C00306D52868800337D560680028CF
:1014A0007ED033E0012062680004012A11D081005F
:1014B000002A01D0052A10D02A6882432A602868B1
:1014C000884328606068002814D0FFF72FFC064688
:1014D0000CE0296801432960F4E72A680A432A607E
:1014E000F7E7FFF723FC801B64286FD82868800388
:1014F000F7D50BE0FFF71AFC064604E0FFF716FCF1
:10150000801B6428F1D828688003F7D4207801264E
:10151000800700283BDA68680007800F07D06868FA
:101520000007800F022809D16868C00306D4286824
:10153000800715D5E068012832D111E0E068002865
:10154000286815D030432860FFF7F0FB074604E019
:10155000FFF7ECFBC01B0228C7D828688007F7D527
:101560002868F82188432169C900084328600EE0F3
:10157000400840002860FFF7D9FB074604E0FFF76A
:10158000D5FBC01B0228B0D828688007F7D4207884
:10159000000724D5E0690028686A10D0304300E0D5
:1015A00008E16862FFF7C2FB074604E0FFF7BEFBF5
:1015B000C01B022899D8686A8007F7D50FE0400859
:1015C00040006862FFF7B2FB074605E09DE0FFF7C9
:1015D000ADFBC01B022888D8686A8007F7D4207842
:1015E00004274007002860DA00200190E869C00065
:1015F00008D4E969B8060143E961E96901400120BD
:10160000009101906D480168C90511D401688215E7
:1016100011430160FFF78AFB009005E0FFF786FBAE
:101620000099401A642870D864480068C005F5D550
:10163000A06801280AD0002801D0052810D0286A07
:10164000400840002862286AB84301E0286A304315
:101650002862A068002812D0FFF768FB00900AE01B
:10166000286A38432862F1E7FFF760FB0099411AC6
:101670005348814249D8286A8007F5D50DE0FFF725
:1016800055FB009006E0FFF751FB0099411A4C48CA
:1016900081423AD8286A8007F5D40198002804D0FE
:1016A000E969012000078143E9612078C00635D54A
:1016B000606901280CD0401D686B23D038436863F3
:1016C000686B400840006863FFF730FB064622E085
:1016D000686B38436863686B30436863FFF726FBC9
:1016E000064604E0FFF722FB801B02285BD8686BEC
:1016F0008007F7D5686BF8218843A169C9000843C2
:1017000068630BE0B8436863F4E74CE0FFF70EFB57
:10171000801B022847D8686B8007F7D4206A00280E
:1017200046D069680907890F022943D00126360689
:101730000228286805D0B0432860FFF7F7FA04466E
:1017400033E0B0432860FFF7F1FA074604E0FFF703
:10175000EDFAC01B022826D828688001F7D4E86A71
:10176000E16A000900010843E862616AA06A08436F
:1017700069683D2212049143084368602868304339
:101780002860FFF7D3FA044604E0FFF7CFFA001B06
:10179000022808D828688001F7D509E0FFF7C6FAC3
:1017A000001B022801D90320FEBD28688001F5D462
:1017B0000020FEBD0120FEBD001002400070004070
:1017C00088130000042204490428086902D09043C9
:1017D000086170471043FBE700E000E0704700003D
:1017E000094910B5401E884201D9012010BD074C9F
:1017F00060610321081F00F01BFB0020A06107208F
:101800002061002010BD0000FFFFFF0000E000E0AD
:1018100010B5FFF7E3FF10BD70470000F8B503688F
:101820000446D96918680D072D0F07D18A0605D51A
:10183000820603D5204600F019FCF8BD9A68002DF9
:1018400064D0D507ED0FFF26213606402E435DD02C
:10185000CE0706D0C60504D501261E62E36E3343CB
:10186000E3668F0702230426002F06DAD70704D089
:1018700027683B62E76E3743E7664F0706D5D20716
:1018800004D022681662E26E1A43E2660A0709D59E
:10189000202202402A4305D0236808221A62E36E00
:1018A0001343E366E26E002AC7D0890604D580069A
:1018B00002D5204600F0DAFBE06E000703D4206872
:1018C000806840061CD5204600F0B4FB2068816883
:1018D000490611D58168402291438160606E0028DD
:1018E0000AD012494163606EFFF74AF90028A4D07C
:1018F000606E416B8847F8BD2046FFF78DFFF8BD4D
:101900002046FFF789FF0020E066F8BD0A0605D5EE
:10191000020603D5204600F07FFCF8BD4906FCD541
:101920004006FAD5204600F094FBF8BD21200008BF
:1019300070B5040005D025466035687A002802D0CD
:1019400006E0012070BD00202872204600F026F835
:101950002420687220680168490849000160204617
:1019600000F0C2FB0128EDD0606A002802D02046BA
:1019700000F0E8FA206841680122D20291434160F8
:1019800020688168082291438160206801680122F3
:1019900011430160204600F03AFB70BD00B50068BD
:1019A0000F4987B0884218D10E4882690121890306
:1019B0000A4382618069084005900320400200903C
:1019C0000220019000200290032003900120049047
:1019D00009206946C006FFF705F907B000BD000001
:1019E000003801400010024070B5034660339C7A15
:1019F000202C39D100290BD0002A09D00125846878
:101A00002D03AC4206D10669002E03D1CE0701D0CA
:101A1000012070BD1E7A012E26D001261E7241655E
:101A2000014640310A834A83FF22AC4204D1046953
:101A3000002C07D10D4A05E0002C04D10469002CCC
:101A400000D07F228A830021C16622229A721972F5
:101A500001688A6832438A6000680168FF22213287
:101A600011430160002070BD022070BDFF01000025
:101A70007047FFB5064604466036707A83B00D465F
:101A8000202858D1002D0CD00598002809D001201D
:101A9000A1680003814207D12069002804D1E8072A
:101AA00002D0012007B0F0BD307A012843D00120D8
:101AB00030720020E06621207072FFF737F9019044
:101AC00027464037059838820598788218E0788A4A
:101AD000401E788206980090002280212046019BBB
:101AE00000F0CDFB002818D10120A168000381423D
:101AF00002D12069002812D02168287808856D1C41
:101B0000788A0028E3D106980090002240212046E0
:101B1000019B00F0B4FB002808D00320C2E728880E
:101B20002168C005C00D0885AD1CE9E72020707252
:101B300000203072B6E70220B4E77047FEE7016884
:101B40008A69D243920701D400228A6200688169BF
:101B5000C943C90703D081690122114381617047DC
:101B6000F7B5044600680E468069C043C0062CD411
:101B700020272546403520688069C04380060FD560
:101B8000701CF8D0002E05D0FFF7D0F80299401A4B
:101B9000B042F0D96F700020A87028700320FEBDFD
:101BA00021681020C8612068C7612046FFF7C7FF81
:101BB00020684168064A11404160042060646F70EB
:101BC0000020A87028700120FEBD0020FEBD00008E
:101BD00000E800FEF8B504460120164640031D4605
:101BE000DAB20090079F0023204600F05DF83A46E5
:101BF0002046069900F0B5F8002803D0606C042850
:101C00001BD018E02846F5B2012809D02168300A17
:101C100088623A462046069900F0A3F80028EDD1E4
:101C2000206885620097002240212046069B00F034
:101C30004DF8002800D00320F8BD0120F8BDF8B50C
:101C400004460120164640031D46DAB2C302009046
:101C5000079F204600F028F83A462046069900F0F3
:101C600080F8002803D0606C04281BD018E02846B8
:101C7000F5B2012809D02168300A88623A46204628
:101C8000069900F06EF80028EDD120688562009773
:101C9000002280212046069B00F018F8002800D082
:101CA0000320F8BD0120F8BD70B50568049C686884
:101CB0008905890D1204044E114319433040214314
:101CC0000143696070BD0000009800FCF8B51C4637
:101CD00017460E46054611E0601C0FD0002C05D0BB
:101CE000FFF724F80699401AA04207D92020403572
:101CF00068700020A87028700320F8BD28688169EA
:101D00003046884304D00020B842E5D00020F8BD1A
:101D10000120F9E770B516460D4604461AE0324632
:101D200029462046FFF71CFF002801D0012070BD86
:101D3000002D04D0FEF7FAFF801BA8420AD9616C7F
:101D4000202001436164403460700020A070207046
:101D5000032070BD20688069C0438006DFD4002066
:101D600070BD70B516460D4604461CE03246294645
:101D70002046FFF7F5FE002801D0012070BD681C49
:101D800011D0002D04D0FEF7D1FF801BA8420AD944
:101D9000616C202001436164403460700020A070B9
:101DA0002070032070BD20688069C0438007DDD4A7
:101DB000002070BD10B5094807490160002181600D
:101DC000016141610122C161C2600162FEF7B4FF9D
:101DD000002800D0FEE710BD005400401000002095
:101DE00010B5002211461B20FFF756FA1B20FFF703
:101DF00049FA10BD10B50C480A490160E1214902B9
:101E0000416000218160C16001618161C1610C227A
:101E1000016242614162FFF78BFD002800D0FEE7BE
:101E200010BD0000003801405C0000207047000039
:101E30008307FF22DB0E9A408907090E994000288C
:101E40000BDA0007000F0838830808489B001818B1
:101E5000C36993430B43C3617047830804489B00E5
:101E60001B181868904308431860704700ED00E0A5
:101E700000E400E07047704710B5FFF7BDF9FFF7C9
:101E8000C7FC10BD30B591B0012001900090000456
:101E900009908000022500240A9008950B9468465A
:101EA000FFF7E6FA002800D0FEE707200C900E941A
:101EB00000210D950F940CA8FFF7F2F9002800D02F
:101EC000FEE7FFF783FA7D21C900FEF70BF9FFF764
:101ED00087FC0420FFF776FC00221146501EFFF716
:101EE000DBF911B030BD0000134801680122114335
:101EF00001604168114A114041600168104A114077
:101F000001600168012292049143016041683F220F
:101F1000120491434160C16A09090901C162016B60
:101F2000FF22143291430163416B49084900416328
:101F30000021816070470000001002400CB8FF08CB
:101F4000FFFFF6FE10B5818CC90707D001684A680B
:101F500001235B049A43836A1A434A60818C890790
:101F600007D501684A6801231B049A43C36A1A43D0
:101F70004A60818C490707D501684A6801239B04A0
:101F80009A43036B1A434A60818C090707D501689D
:101F90004A680123DB039A43436B1A434A60818CEE
:101FA000C90607D50268916801231B039943836B17
:101FB00019439160818C890607D501688A680123DD
:101FC0005B039A43C36B1A438A60818C490612D51E
:101FD00003685A6801210905046C8A4322435A6048
:101FE000026C8A4207D10268516803235B0599435A
:101FF000436C19435160818C090607D501684A6812
:102000000123DB04806C9A4302434A6010BD002127
:10201000C1662022603042728272017208467047A7
:1020200010B5406A0022014640314A834A82FFF7D8
:10203000F3FB10BD01680A68FF2321339A430A604D
:1020400001688A68520852008A60202160308172DB
:10205000704710B501680A6840239A430A6020223D
:1020600069210A54FFF769FD002010BD70B50246D2
:10207000403203466033948B9D7A0168222D05D04F
:102080008869082210438861022070BD898C01266E
:1020900085683603B54202D10569002D0BD0214079
:1020A000446D651C45652170518B491E0904090C5E
:1020B000518307D015E0456D21402980416D891C71
:1020C0004165F1E701680A68FF242134A2430A60F0
:1020D00001688A68520852008A6020219972FFF7CD
:1020E000C7FC002070BD0000F8B504462369A26853
:1020F000E5691A43636910202B43002125681A43C0
:102100002B680E463E4F3B4013432B6023685A68B2
:1021100003252D03AA43E5682A435A60236AA2696E
:1021200025681A43AB680B273F02BB431343AB60E0
:10213000344A2568954210D1334A126B9207920FA8
:102140000ED0012A05D0022A05D0032A09D1022087
:1021500007E0042005E0082003E02C4A954200D166
:1021600000200122E369D203934224D100280CD03D
:1021700002280DD0042813D0082817D001260A09F8
:1021800012010807400F10432FE0FFF725F909E07F
:1021900061681F4A48088018FDF7A4FF81B2EEE786
:1021A000FFF72AF9616840004A08F4E761680122F4
:1021B00048081204EFE7002808D0022809D00428B4
:1021C0000BD0082814D001263046F8BDFFF704F9DB
:1021D00005E061680F4A48080CE0FFF70DF96168F7
:1021E0004A088018FDF77EFF80B22168C860EBE7DF
:1021F000616848088018FDF775FF80B2E860E3E782
:10220000F369FFFF00380140001002400044004025
:102210000024F40000127A006921095C212901D010
:102220000220704702464032518A002912D0012311
:1022300081681B03994202D10169002915D0C16C44
:102240004B1CC364006809780185508A401E508287
:102250000020704701680A6880239A430A6000687A
:102260000168402211430160F2E7C16C03680988EC
:10227000C905C90D1985C16C891CC164E5E7FFB5A5
:1022800081B017460E4604460A9D1DE0681C1BD00F
:10229000002D05D0FEF74AFD0499401AA84213D933
:1022A00020680168FF22A1329143016020688168A3
:1022B000490849008160202060346072A0720020CB
:1022C0002072032005B0F0BD2068C1693046884304
:1022D00004D00020B842D9D00020F3E70120F9E76C
:1022E00010B50548FFF79AFAFEF7E6F90146012214
:1022F0000148FFF779FB10BD5C00002070B5144663
:102300000D460246024B2146284600F0D5F870BD26
:10231000132C00082021020C01D010211046020AC3
:1023200001D010460839020901D01046091F820861
:1023300001D01046891E420801D0881E7047081A35
:10234000704702E008C8121F08C1002AFAD170477E
:102350007047002001E001C1121F002AFBD1704725
:10236000F0B51FB484B007980699020D014314D04C
:102370004A484B491018484305140F9801280E98F5
:102380001CD0281A401C0024464E47490094019155
:102390000290002814DA474227E00F98012443A353
:1023A000012808D0002104980F9A84600360C2605D
:1023B000416009B0F0BD0E98C143F4E74042E2E746
:1023C000074612E0F80707D02246334601990098E5
:1023D000FDF7CAFF01910090224633461046194688
:1023E000FDF7C2FF04460E467F10002FEAD1029887
:1023F000019B0028009A0799069802DAFDF7B4FFBE
:1024000001E0FEF719F804460E460022284BFEF7BD
:10241000ABF803D80020C043014607E00022254B5B
:1024200020463146FDF7EEFEFEF77EF8102409E067
:10243000002C0ADB0A220023FDF7B4FE059B303294
:102440001A55641E02460A43F2D11122641C059BF0
:10245000121B1C190F9B012B03D0012308430ED123
:102460000AE0084304D011200E9000200F9084E76A
:102470000E98151A6D1E0BE00E98824202DD0023A5
:102480006D1C03E0824201DA00236D1E002BEED0AA
:1024900004980F998260C16030C08AE701FCFFFF99
:1024A000104D0000000024400000F03F300000000C
:1024B0000000F0430000E03FFFB597B0064600255E
:1024C00018E2252877D100242746FD49049400E02E
:1024D0000443761C32780120203A90400842F7D11C
:1024E00030782A280ED00222307801463039092966
:1024F00016D804990A235943303940181443761CDE
:102500000490F1E7189802C804911890002904DAA1
:102510000120400304434842049002200443761CF7
:1025200030782E2814D1042004437078761C2A2891
:1025300009D11898761C80C8189009E00A214F43E9
:10254000303FC719761C3078014630390929F5D952
:1025500030786C2810D006DC4C281AD068280ED0B1
:102560006A2817D104E0742813D07A2812D110E019
:102570000120400504430CE00121090501E003218D
:1025800009050C437178814203D10120000524180C
:10259000761C761C3078119066280BD013DC5828F6
:1025A0007DD009DC00287BD04528F6D04628F4D021
:1025B00047281AD1A5E118E0632835D0642870D0E7
:1025C000652812D19DE170286CD008DC6728F1D015
:1025D00069287BD06E280DD06F2806D1BAE0732809
:1025E0002ED0752871D0782859D01A9A1999904709
:1025F0006D1C7EE16002400F022809D003280DD037
:102600000428189801680DD00D60001D189070E125
:102610001898EA1701680D604A60F6E71898016893
:102620000D80F2E70D70F0E718986A460178117294
:10263000001D18900020507202A80090012005E0B3
:10264000189802C8189000200091C04361070DD56A
:10265000002101E00199491C0191B94212DA81423D
:10266000F8DB009A515C0029F4D10BE0002101E075
:102670000199491C01918142FADB019A0099895C18
:102680000029F5D1019904981A9B471A214638462A
:10269000199A00F097FA0199401945180BE04FE09C
:1026A0002CE113E04EE0009800990078491C00915D
:1026B0001A9A199990470198401E0190401CF2D136
:1026C000214638461A9B199A10E137E00A2000216A
:1026D000009001916002410F022907D0189A01CAA7
:1026E0001892C2179446032908D00AE01898C01D12
:1026F000C108C90005C91891944607E000B2C21785
:102700009446042902D140B2C1178C46002261468A
:10271000944506DA0A460021404291418C462D211B
:1027200002E0210504D52B216A461173012103E043
:10273000E10701D02021F7E7029155E00A200AE0E5
:10274000102008E010200090002104200443019193
:10275000082703E008200021019100906002410F4A
:10276000022907D0189A01CA189200229446032918
:1027700008D008E01898C01DC108C90005C9189103
:10278000944603E080B2042900D1C0B20021029136
:10279000210729D51199702906D0009A1021019B93
:1027A0004A401A4305D00EE040216A4611730121C8
:1027B00008E06146014306D030216A461173119941
:1027C000517302210291009A0821019B4A401A4349
:1027D0000AD16146014301D1610705D530216A461E
:1027E000117301217F1E02911199582904D035A13E
:1027F0000E910DA90D910DE037A1F9E76146019BFE
:10280000009AFDF7CFFC0E9B8C469B5C0D9A521EE6
:102810000D92137061460143F0D10D9805A9081A75
:1028200020300190600703D501200004844300E0BC
:1028300001270198874201DD381A00E00020019944
:1028400000904118029809180498401A0490E00377
:1028500006D421461A9B199A049800F0B3F9451939
:10286000002706E003A81A9AC05D199990476D1CCD
:102870007F1C02988742F5DBE0030CD521461A9BAA
:10288000199A049800F09EF9451904E01A9A30202C
:10289000199990476D1C0099481E00900029F5DC9D
:1028A00008E00D980D990078491C0D911A9A199914
:1028B00090476D1C0199481E01900029F1DC63E1ED
:1028C0000928010030313233343536373839616206
:1028D00063646566000000003031323334353637CA
:1028E00038394142434445460000000000F05AF99F
:1028F0004519761C3078002800D0E2E528461BB048
:10290000F0BD600700D406271898C01DC108C90093
:1029100048680A680831C30FDB071891190001D015
:102920009CA108E0210501D59BA104E0E10701D0AD
:102930009AA100E09AA1430011985B0810916528C4
:102940000CD006DC452809D046281DD0472841D1A7
:1029500041E0662818D067283CD13CE00021112FC7
:1029600001DB112000E0781C0191009008A911A85A
:10297000FFF7F6FC139905910021119A15927F1C1F
:1029800012980197009150E00120C00703900120A8
:10299000019008A9009711A8FFF7E2FC139A149977
:1029A00005920022119B009212981593059A0192AC
:1029B000002901D0104602E0791C40180190381A15
:1029C00001D5019804E04042401E0090781C01901F
:1029D000C01B029043E0012F00DA01270021112FD4
:1029E00001DD112000E038460191009008A911A8EE
:1029F000FFF7B6FC13990591119A002112981592D0
:102A00000091019721070CD40599B94201DB019986
:102A100000E00191012904DD159A491E515C30291D
:102A200006D0B84201DA011D05DA0121029115E054
:102A30000199491EEDE7002805DC00994118009135
:102A40000199091A03E0019A411C914200DD0191AC
:102A50000099401A401C02900120C00703902007F3
:102A600006D402990198814202DB0020C043029003
:102A700000206946C87707AF012103980337C907CB
:102A8000884224D0022011902B2012900398002815
:102A90000CDA404203902D20129007E00A2103989F
:102AA000FDF720FB30317F1E039039701199481ECD
:102AB00011900029F2DC03980028EFD1791E1298BA
:102AC00008703078202108404530BF1E387006A8B5
:102AD000C01BC01D039010980078002800D0012072
:102AE000019941180298C017091803980918049809
:102AF000401A401E0490E00306D421461A9B199AFE
:102B0000049800F05FF8451910980078002803D069
:102B10001A9A199990476D1CE00324D521461A9BF7
:102B2000199A049800F04EF845191CE00098002806
:102B300007DB00990598884203DD1598405C1999D8
:102B400001E0199930201A9A904700986D1C401C9A
:102B500000900298401E0290002804D11A9A2E205C
:102B6000199990476D1C0199481E01900029DDDCE0
:102B700005E038781A9A7F1C199990476D1C0399C3
:102B8000481E03900029F4DC21461A9B199A0498E8
:102B9000ACE600002D0000002B000000200000002B
:102BA00000000000F8B5044600251E4617468804BC
:102BB00004D405E039462020B0476D1C641EF9D5C9
:102BC0002846F8BDFFB50446002581B01E46C8035F
:102BD00001D5302700E02027880404D505E03846D9
:102BE0000399B0476D1C641EF9D5284605B0F0BDA9
:102BF00010B5030A502423431370087010BD0FB49E
:102C000010B503AA0299FFF779FB10BC08BC04B009
:102C1000184710B500F016F810BDFEF7F5FAFFF7EB
:102C200031F9FFF7C7F8FFF7E5F8E1204002FDF7BB
:102C300047FDFFF7D5F80020FDF77EFE0020FDF7E9
:102C4000C3FDFEE701B56423012269460248FEF791
:102C500010FF009808BD00005C000020000000008C
:102C6000000000000102030406070809000000003C
:102C700001020304942C0008000000201000000052
:102C800042230008A42C000810000020C00400000B
:102C90005223000800127A0000000000000000002B
:042CA0000000000030
:04000005080000B53A
:00000001FF
